:020000040000FA
:020000000728CF
:080008008B10071009005120C4
:100010007620CC20CF203020D22088012320A400BD
:100020008E202408483A031907142408543A031967
:1000300007142408423A03190714D520880A081E19
:100040000E2888010A286920A30023302302031CFC
:100050004C342308253C031C4834091842342E3400
:1000600030308E2031308E2032308E2033308E2052
:1000700034308E2035308E2036308E2037308E2032
:1000800038308E2039308E2041308E2042308E2004
:1000900043308E2044308E2045308E2046308E20D6
:1000A00008008501860187018801890183160530D2
:1000B0009F0007309C003F308500013086000030F3
:1000C0008700003088000730890083128B170B16D9
:1000D000080041309F0071201F151F196D281E0850
:1000E00008000530A000A00B732808008601E4205A
:1000F0003030B620E4203030B620F1203030B62049
:10010000F1202030B620F1202830A2200830A22093
:10011000CC200C30A2200630A2200800A500F1203F
:10012000F1202508F039C0208617061700000000CE
:100130000613250EF039C0208617061700000000B0
:1001400006130800A500F120F1202508F039C02091
:1001500086130617000000000613250EF039C02094
:10016000861306170000000006130800A5002508E6
:10017000F039C0208613061700000000061308009F
:1001800086018614A700A71B0615271B8615A71A2C
:100190000616271A861608000130A22008008030B3
:1001A000A2200800C030A220080000002E30A200CB
:1001B000BD30A1002530A0006400A00BDC28A10BFD
:1001C000DA28A20BD82808000530A2001130A100BF
:1001D0004D30A000A00BEA28A10BE828A20BE628CE
:1001E00008000530A2000F30A1000530A000A00BD0
:0C01F000F728A10BF528A20BF32808004B
:00000001FF
